:020000040008F2
:1000000000200820A54A0800210F0800B741080079
:10001000230F0800250F0800270F0800000000002C
:10002000000000000000000000000000290F080090
:100030002B0F0800000000002D0F0800EB41080006
:100040002F0F0800310F0800330F0800350F08008C
:10005000370F0800390F08003B0F08003D0F08005C
:10006000B12708003F0F0800274208007B42080024
:10007000410F0800CF270800CB1A0800F51A080026
:10008000430F0800450F0800A7310800470F08007C
:10009000490F08004B0F08004D0F08004F0F0800D4
:1000A000510F0800530F0800550F0800570F0800A4
:0C00B000590F08005B0F08001F0F08002C
:1000BC0010B584B001A8DFF858180CC90CC0083969
:1000CC000838DFF8200C00788DF806000024DFF8E3
:1000DC00EC0ADFF8EC1A0860DFF8E00ADFF8081C1D
:1000EC000860DFF8D80ADFF8041C08600020DFF88D
:1000FC00001C0870DFF8FC0B006800905FF4001027
:10010C00DFF8101808605FF40000DFF8EC1B0860E3
:10011C005FF08070DFF8E01B0860642100A800F03D
:10012C0017FF0028F9D05FF40010DFF8CC1B086033
:10013C00DFF8C00B006800904FF47A7100A800F053
:10014C0007FF0028F8D0DFF8AC0B00680090DFF850
:10015C00500C0068C00709D4E4B2002C06D14FF44F
:10016C007A7100A800F0F4FE0400F0E7E4B2002C71
:10017C0010D100F025F800F0CFFB01A800F0B5FB82
:10018C008DF8080001A800F049FA4FF47A713E206E
:10019C0000F00AFB1FBD0020C82801D2401CFBE761
:1001AC005FF08070DFF86C1708600020142801D213
:1001BC00401CFBE75FF08070DFF83C1B0860704769
:1001CC00F0B58BB006A8DFF8401A112200F01EFF24
:1001DC0000A8DFF8381A182200F028FF0027DFF8F3
:1001EC00C00B0068C00740F10B81DFF8240A0068DF
:1001FC0006000020DFF81C1A0860DFF81C0A0068F3
:10020C00C00009D5DFF8100A006830F08050DFF824
:10021C00081A0860761E15E0FFF7BDFFDFF8800BAB
:10022C00006840070ED4DFF8EC09006842F2107148
:10023C00884207D2DFF8DC090068401CDFF8D419CB
:10024C000860EBE7DFF8CC09006842F211718842D4
:10025C0005D300F0D7F806A800F024FFD0E0DFF8B3
:10026C00400B006830F00400DFF8341B0860DFF846
:10027C00780A00680078A42840F08680DFF8980996
:10028C00006850F08060DFF890190860FFF783FF7A
:10029C00DFF80C0B0068C0070ED5DFF87809006892
:1002AC0042F21071884207D2DFF868090068401CDE
:1002BC00DFF860190860EBE7DFF85C09006830F0E4
:1002CC008060DFF854190860DFF8D40A006830F059
:1002DC000400DFF8CC1A0860DFF83809006842F235
:1002EC001071884246D2DFF828090068861BDFF8B7
:1002FC00F80900680078040000F09AF8DFF8E809C3
:10030C0000680078801C0500EDB2A81C864207D05E
:10031C00DFF80409006850F00100DFF8FC180860F1
:10032C00DFF8C40900680078444000F081F86D1EC5
:10033C00EDB2002DF4D1DFF8B00900680078E4B21A
:10034C0084420ED1DFF8A8090078401CDFF8A01910
:10035C000870DFF8A8090068401CDFF8A0190860D5
:10036C001BE0DFF884090068DFF88019086000F0F2
:10037C0073F812E0DFF888090068401CDFF8801978
:10038C0008600120070008E0DFF878090068401CCD
:10039C00DFF87019086001200700FFB2002F2DD084
:1003AC0000A800F07FFEDFF8F8090068C00710D540
:1003BC00DFF86008006842F21071884209D2DFF859
:1003CC0054080068401CDFF84C180860FFF7E3FE87
:1003DC00E9E7DFF8EC070068DFF80C190860DFF8D4
:1003EC00E0070068DFF804190860DFF8B40900685A
:1003FC0030F00600DFF8A819086001E000F018F8EA
:10040C000BB0F0BD72B6DFF8B407DFF8B4170860B4
:10041C00DFF8A807DFF8D0180860DFF8A007DFF8CE
:10042C00CC1808600020DFF8C818087062B6704756
:10043C00DFF8B4080068401CDFF8AC180860DFF87F
:10044C00A8080068DFF87419884204D1DFF86C073B
:10045C00DFF8941808607047DFF890080068401CBB
:10046C00DFF888180860DFF884080068DFF84C199A
:10047C00884204D1DFF84407DFF870180860704731
:10048C0038B5DFF8BC090068C00109D5DFF8B4093C
:10049C0000F008FEDFF8B009DFF8B0190860B6E02C
:1004AC005FF40010DFF8A8190860DFF8A80900F065
:1004BC00F9FD0020DFF8A01908600020DFF89C1976
:1004CC0008600020DFF81C1808701020DFF81418E2
:1004DC0048700020DFF80C188870FF20DFF8041833
:1004EC00C870FF20DFF8FC1708710120DFF8F41743
:1004FC0048711020DFF8EC178871CD20DFF8E41775
:10050C00C8710C20DFF8DC1708723720DFF8D4171D
:10051C0048720320DFF8CC1788720420DFF84019EA
:10052C000870DFF84009DFF8381948605FF4800084
:10053C00DFF82C1988600120DFF8241908730220D9
:10054C00DFF81C1948730FF24530DFF814190861F5
:10055C000FF25130DFF808194861DFF86006DFF858
:10056C0000198861DFF85806DFF8F418C8614FF4F9
:10057C008070DFF8EC180884DFF8E40801F03AF931
:10058C00DFF8E41808600020DFF814180860FFF7A3
:10059C008FFDDFF8D8080078C00617D5DFF8D00833
:1005AC0000F080FDDFF8CC0800F07CFD00F08CFD45
:1005BC00DFF8C408006830F48030DFF8BC1808603D
:1005CC000FF24570DFF88418086020E0DFF8AC0803
:1005DC0000F068FD5FF0307004005FF0F070050013
:1005EC00DFF89C080460DFF89C080460DFF89808CA
:1005FC000560DFF870080560DFF890080460DFF82C
:10060C00900805600FF60910DFF84018086031BD3E
:10061C0080B5DFF838080068804701BDF0B599B0A7
:10062C000400DFF87008076810A8DFF86C182122A6
:10063C0000F0ECFC0AA8DFF86418152200F0E6FCC8
:10064C0005A8DFF85C18122200F0E0FC00A8DFF827
:10065C005418112200F0DAFCDFF8BC05006810F029
:10066C00406F04D010A800F01DFD00209AE000207F
:10067C00DFF8A01508605FF40000DFF8981208603E
:10068C00DFF81C070068C0070ED4DFF88805006887
:10069C0042F21071884207D2DFF878050068401CDE
:1006AC00DFF870150860EBE7DFF86805006842F2C8
:1006BC001171884209D35FF40000DFF83C16086022
:1006CC000AA800F0EFFC00206CE0FFF764FDDFF8F7
:1006DC00D006006840070ED4DFF83805006842F2F7
:1006EC001071884207D2DFF82C050068401CDFF837
:1006FC0024150860EBE75FF40000DFF8FC150860D8
:10070C00DFF81005006842F21171884204D30AA880
:10071C0000F0C8FC002045E0DFF8CC05006800784C
:10072C000500EDB2A42D09D1DFF8EC04006850F0FF
:10073C008050DFF8E4140860002033E0FFF778FE07
:10074C00FFF78AFEDFF85806006830F00400DFF887
:10075C0050160860EDB2A52D20D1DFF8BC0400685E
:10076C0050F00060DFF8B01408602078C01C060060
:10077C0022003100DFF8F006006801F0DFF8DFF846
:10078C0028170860DFF820070068002801D0012036
:10079C0008E005A800F086FC002003E000A800F0AB
:1007AC0081FC002019B0F0BDF0B589B004000D003B
:1007BC0000260127DFF8DC060068009001A8DFF8AE
:1007CC00EC161A2200F022FCDFF8280500680090D5
:1007DC00DFF8CC050068C00709D5F6B2002E06D1AB
:1007EC004FF47A7100A800F0B3FB0600F0E7F6B204
:1007FC00002E20D1DFF88006006830F00060DFF8B2
:10080C007816086000F05DFA0020DFF89C1608608E
:10081C00DFF8E00400680090DFF884050068C0078A
:10082C0009D4F6B2002E06D14FF47A7100A800F06C
:10083C008FFB0600F0E7F6B2002E1BD1FFF7C0FCD1
:10084C00DFF8AC040078002814D0DFF8A0040068AE
:10085C00807840280ED1DFF8940400680079E4B267
:10086C00A04207D1DFF8840400684079002801D148
:10087C000020070000F050F8F6B2002E02D001A8BC
:10088C0000F010FC3800C0B209B0F0BD80B5DFF844
:10089C0020060068401CDFF818160860FFF77BFC88
:1008AC0001BD000080B5DFF868030068401CDFF86C
:1008BC0060130860DFF808050068401CDFF80015BD
:1008CC000860DFF8FC040068DFF8F014884204D1FB
:1008DC00DFF8F004DFF8E8140860DFF89C05006826
:1008EC00400101D5FFF757FC01BD10B40100087899
:1008FC00821CA5200023DBB2D2B2934204D20C7826
:10090C006040491C5B1CF6E7C0B210BC704700008D
:10091C00B04A0800340E0E4030B585B0DFF8D00375
:10092C000078002801D1012046E1DFF88C05006831
:10093C00401CDFF884150860DFF8B4030078401E13
:10094C00DFF8AC130870FFF787FDDFF8A003006831
:10095C0000780400E4B2122C01DB01202CE100250C
:10096C00EDB2E4B2E01C85420ADADFF880030068DD
:10097C00007800A9EDB26854FFF76EFD6D1CEFE72F
:10098C009DF801003E2800F0F58040280CD04E2840
:10099C0000F0E2804F2800F0D280522800F0E9806D
:1009AC006F2800F0FB8000E19DF80300012859D06E
:1009BC009DF8030041282DD0422826D04B2802D088
:1009CC004C2815D034E0DFF8F40400F06BFBDFF8B2
:1009DC00A804006850F40020DFF89C140860DFF8CD
:1009EC009804006830F48020DFF88C14086023E051
:1009FC00DFF8CC0400F056FBDFF87C04006830F420
:100A0C00C010DFF87414086016E0DFF8B80400F0CA
:100A1C0049FB11E0DFF8B00400F044FBDFF85804A8
:100A2C000068DFF8A8140840DFF84C14086003E0F5
:100A3C00DFF89C0400F036FB9DF80400002804D17C
:100A4C00DFF82C0400F02EFB78E0DFF8880400F0CF
:100A5C0029FBDFF82404006850F00200DFF81814BA
:100A6C0008606BE09DF8040000280ED001284CD0E3
:100A7C0002280BD0032830D0052836D0062840D0C9
:100A8C00072846D0082824D050E057E0DFF8480467
:100A9C000078401CDFF840140870DFF83C04007844
:100AAC00002812D1DFF834040078401CDFF82C1435
:100ABC000870DFF828040078002806D1DFF820043D
:100ACC000078401CDFF818140870022000F07AF847
:100ADC0034E0082000F076F830E0824840781028A6
:100AEC0002D1032000F06EF828E0DFF88C030068D8
:100AFC0050F08070DFF880130860052000F062F879
:100B0C001CE0062000F05EF818E0012000F05AF816
:100B1C0014E0DFF8D00300F0C5FADFF85C030068DE
:100B2C0030F4C010DFF85013086007E0DFF848031A
:100B3C00006850F00400DFF8401308603BE00DF152
:100B4C000301012000F06AF866484078002802D1C1
:100B5C00002000F037F82EE00DF10301012000F029
:100B6C005DF860484078002802D1002000F02AF897
:100B7C0021E020E00020C0B20A2808DA00A9C0B2A7
:100B8C0041188978BB4AC0B28154401CF3E7B7487E
:100B9C00006850F01000B54908600CE0B6480068D9
:100BAC0050F48030B449086005E0B348006850F058
:100BBC000800B1490860002005B030BD5416002073
:100BCC00041C00201CB50400FF208DF800008DF8DB
:100BDC000140FF208DF80200FF208DF80300FF205C
:100BEC008DF80400BE4800788DF80500BB480078ED
:100BFC008DF80600B84800788DF8070000A902208F
:100C0C0000F00CF813BD0000E4490800844908000A
:100C1C00F01B0020E41B0020D81B00202DE9F04124
:100C2C008CB004000D005FF0000800A8AE492B2228
:100C3C0000F0ECF9142001F02FFA0600002E04D17C
:100C4C0000A800F02FFA002038E00020C0B20828DD
:100C5C0006DAC0B2415DC0B282195171401CF5E791
:100C6C002448006830603471002030617A48006894
:100C7C00002807D1784806608E480068401C8D49D2
:100C8C0008601AE07448006807003869002803D02F
:100C9C003F6918F10108F8E75FFA88F8B8F1200FFE
:100CAC0006D23E6183480068401C8249086004E01B
:100CBC0000A800F0F7F9002000E001200CB0BDE81E
:100CCC00F08110B56548006800280AD063480068B8
:100CDC00040062480068806960490860200001F0E7
:100CEC0033FA10BDB81B0020081C00200C1C00207F
:100CFC000C1D0020741C0020300E0E401C1C00200B
:100D0C00F41B0020F81B002070B5012400255A4864
:100D1C000068000420D0754800F0C4F96D1C002652
:100D2C00F6B2042E12DA5448006820420BD07048F8
:100D3C00EDB2142101FB050000F0B4F94E48006837
:100D4C00A0434D4908606400761CE9E74A480068F6
:100D5C00000C000448490860FFF7DEFD10480068ED
:100D6C00C00704D50FF23D003849086016E04E4824
:100D7C000068002812D13948006800280ED0374886
:100D8C000068001DFFF74AFC002807D0594800688E
:100D9C00594908600FF231002C49086070BD000001
:100DAC00A01C002080B555480068401C53490860C1
:100DBC00FFF706FA52482549086001BD5417002078
:100DCC00041C00205416002010B53748006801F0B0
:100DDC00FBF90400E4B22000001F01282ED8FFF715
:100DEC0070FF0020304908602348006830F0006034
:100DFC002149086043480068C0070BD53E4800688D
:100E0C0042F21071884205D23B480068401C3A49B6
:100E1C000860EFE73C48006842F21171884209D340
:100E2C003A4800F03FF937480068C00702D5FFF791
:100E3C00B2F9F8E7324805490860FFE710BD000039
:100E4C005C1C0020900100201D0F0800E01B0020FE
:100E5C00100E0E401C030020DC1B0020141C002074
:100E6C00B01A0020000E0E40001C0020601C002058
:100E7C0008040020C41B0020D81B0020680200209E
:100E8C00040C0E40000C0E40040E0E40140C0E40D0
:100E9C00140E0E40781C0020384708009C490800AE
:100EAC00F84908000C4A0800FC1B00200C490800FB
:100EBC00EC1B0020101C0020201C0020BC03002078
:100ECC00A80300209403002004030020FEFFE3FF8E
:100EDC00E8020020100400200F1D00200E1D002031
:100EEC000D1D0020204A0800E4460800F8030020ED
:100EFC00FC000020741C0020E81B0020181C0020A3
:100F0C00150D0800A01C0020E41B00208802002006
:100F1C007047FEE7FEE7FEE7FEE7FEE7FEE7FEE7CB
:100F2C00FEE7FEE7FEE7FEE7FEE7FEE7FEE7FEE78D
:100F3C00FEE7FEE7FEE7FEE7FEE7FEE7FEE7FEE77D
:100F4C00FEE7FEE7FEE7FEE7FEE7FEE7FEE7FEE76D
:100F5C0010B402002B4800681468A04205D329483D
:100F6C0000681468001B030007E05FF0FF30146892
:100F7C00001B244C2468201803008B4201D2002053
:100F8C0000E0012010BC70472DE9FE4304000D0069
:100F9C0000260027DFF870800020C0B20A281BDA78
:100FAC00B4FBF8F189465FFA89F9B9F1000F01D069
:100FBC0001210E00F6B2002E05D019F1300100AA65
:100FCC00FFB2B9547F1CB4FBF8F108FB11440A21A1
:100FDC00B8FBF1F8401CE0E7F6B2002E04D101207A
:100FEC00070030208DF80000002000A9FFB27854D3
:100FFC0000A9280001F036FA3800C0B2BDE8FE8323
:10100C0000000000741C002000CA9A3B62B38B07DE
:10101C0008D0521E11F8013B00F8013B00F024806F
:10102C008B07F6D1830740F0208000BF103A07D31E
:10103C0030B4B1E83810103AA0E83810F9D230BC0E
:10104C00530724BFB1E80810A0E8081044BF51F8BA
:10105C00043B40F8043BD20724BF31F8022B20F8A4
:10106C00022B44BF0B7803707047083A07D3B1E8E2
:10107C000810083A40F8043B40F804CBF7D2530769
:10108C00E4E750F8041B61B150F8042BD30744BFBC
:10109C00A9F101039A18002342F8043B091FFAD165
:1010AC00EFE7704770B5040025000026287800286B
:1010BC0002D0761C6D1CF9E722003100DFF87806AF
:1010CC00006801F0BBFA70BD80B5DFF870060088CF
:1010DC00ADF8000000AA0221DFF85C06006801F000
:1010EC00ADFA01BD2DE9FE43040000250026DFF812
:1010FC0050860020C0B20A2819DAB4FBF8F130315E
:10110C0000AAC0B2815400A9C0B2415C302901D000
:10111C0001210D00EDB2002D00D0761CB4FBF8F1CE
:10112C0008FB11440A21B8FBF1F8401CE2E7EDB2D0
:10113C00002D01D101200600F6B2300000F0ACFF0A
:10114C008146B9F1000F08D10220DFF8F8150870BC
:10115C000FF2B150DFF8F0150860092007003000DD
:10116C00C0B2002809D000A9795CC0B210EB09020A
:10117C0002F8011C7F1E401EF2E74A46F6B231000F
:10118C00DFF8B405006801F059FA484600F0DCFFBE
:10119C00BDE8F78370B5A4B000A8DFF8B815052238
:1011AC00FFF734FF11A8DFF8B0154822FFF73EFF18
:1011BC000124012502A8DFF8A4153C22FFF736FF15
:1011CC0011A8FFF76FFF0026F6B2062E12DADFF831
:1011DC009005006804420AD10020050002A8F6B26E
:1011EC000A2101FB0600FFF75DFFFFF76DFF6400AE
:1011FC00761CE9E7EDB2002D02D000A8FFF752FFF4
:10120C00FFF762FF24B070BD00B585B0002080B23E
:10121C00802806D20021DFF84C2580B28154401C76
:10122C00F5E70020DFF8241508700020C0B28028F4
:10123C0006DA0021DFF81825C0B28154401CF5E70E
:10124C00DFF82005DFF820150860DFF81805DFF857
:10125C001C150860DFF81805DFF818150860022067
:10126C008DF80000DFF8FC040190DFF80005029017
:10127C008020ADF802000FF25900039000A801F095
:10128C0029F9DFF8B4140860DFF8AC040068002812
:10129C0005D10FF27140DFF8B014086010E0DFF8F0
:1012AC00D804FFF7FFFEDFF8B804006850F0040024
:1012BC00DFF8AC1408600FF25D20DFF88C140860C6
:1012CC0005B000BD80B5DFF880040068804701BD23
:1012DC00DFF898040068401CDFF890140860DFF811
:1012EC008C040068DFF89414884204D1DFF874048D
:1012FC00DFF878140860704710B592B00AA8DFF8D0
:10130C0080141922FFF782FE3A208DF8020020206B
:10131C008DF803000A208DF824000D208DF825008F
:10132C0000208DF826000AA8FFF7BCFE0024E4B2CA
:10133C00082C2CDAE4B20A2C07DBE4B20A2094FB6A
:10134C00F0F030308DF8000002E030208DF8000015
:10135C00E4B20A2094FBF0F100FB114030308DF820
:10136C0001000020C0B220280CDADFF81814E4B217
:10137C0051F83410C0B2415C00AAC0B2821811718D
:10138C00401CEFE700A8FFF78DFE641CCFE7FFF7CA
:10139C009BFE12B010BD10B584B000A8DFF8E813A6
:1013AC001CC91CC00C390C3800A8FFF77BFE1FBDF4
:1013BC0010B584B000A8DFF8D4131CC91CC00C39BC
:1013CC000C3800A8FFF76EFEDFF8C4030078C007E6
:1013DC000CD5DFF8BC03006840084000DFF8B01300
:1013EC000860DFF8B003FFF75DFE3BE0DFF8A00319
:1013FC00006850F00100DFF898130860DFF89803DC
:10140C00FFF750FE002001F00BFB012001F008FB60
:10141C00022001F005FB032001F002FB042001F087
:10142C00FFFA052001F0FCFA062001F0F9FA07207A
:10143C0001F0F6FA002001F0F3FA012001F0F0FAC5
:10144C00022001F0EDFA032001F0EAFA042001F089
:10145C00E7FA052001F0E4FA062001F0E1FA072092
:10146C0001F0DEFA1FBD10B50400E4B2572C02D116
:10147C00002001F030FBE4B2502C02D1012001F02D
:10148C002AFBE4B2422C02D1022001F024FBE4B28C
:10149C00432C02D1032001F01EFBE4B2472C02D1F5
:1014AC00042001F018FBE4B2592C02D1052001F004
:1014BC0012FBE4B24F2C02D1062001F00CFBE4B27B
:1014CC00522C02D1072001F006FB10BD00B589B0EB
:1014DC0000A8B2492322FFF799FD00A8FFF7E2FD0F
:1014EC00AB480078C00709D5A948006840084000FF
:1014FC00A7490860A748FFF7D5FD08E0A448006895
:10150C0050F00100A2490860A348FFF7CBFD09B0D9
:10151C0000BD000038B50024934800689349096861
:10152C00884200F07F80E4B2002C7BD18E480068AA
:10153C000078050096480078C00703D52800C0B293
:10154C00FFF791FFEDB22800082802D00D2821D01A
:10155C0026E07E480078002809D07C480078401EA0
:10156C007A49087000207A49784A12785054814898
:10157C0000687F49884209D07E480068401E7D493A
:10158C00086087480088401E854908808548FFF719
:10159C0089FD38E0012004000FF29D006A490860C3
:1015AC006A480078802808DA6948684909780D5437
:1015BC0066480078401C654908702900C9B25E482D
:1015CC00006801F023F86B480068057069480068F2
:1015DC00401C6849086072480088401C70490880AB
:1015EC0064480068704988420DD3EDB20D2D0AD0C5
:1015FC005F48604908600020694908806B48FFF724
:10160C0051FD6B49086058480068401C56490860F9
:10161C005548006859498842FFF47EAF51485249F9
:10162C00086079E762480068002803D060480068C9
:10163C0000F0CAFD31BD000070B50124002005008A
:10164C004B48EDB2285C5B49EDB2695C884201D035
:10165C00002004006D1CE4B2002C02D0EDB2042D6D
:10166C00EEDBE4B2002C2ED0002004004048EDB29A
:10167C002856303806006D1C76B2002E23D476B274
:10168C000A2E20DA0A2000FB06F04B490870384875
:10169C00EDB22856303806006D1C76B2002E12D4EE
:1016AC0076B20A2E0FDA4448007830184249087096
:1016BC0041480078082806DA2D48EDB2285C0D2840
:1016CC0001D101200400E4B2002C04D00FF21D0063
:1016DC001D49086005E03948FFF7E4FC38481A4911
:1016EC00086023482349086070BD000080B5344869
:1016FC001549086023483049097810EBC10040684F
:10170C00804701BD80B52248006850F00040204958
:10171C0008602C48FFF7C6FC0A480078FFF7E2FC8B
:10172C00FFF7D2FC00201E490880114811490860BF
:10173C0023480549086001BD401C0020BA2D080053
:10174C0000CA9A3B111D00203C1C0020101D0020DB
:10175C0054180020B84A080060460800A846080043
:10176C00601C0020D41800204C1C0020481C0020B9
:10177C00D4190020501C00204C01002054190020CA
:10178C0028490800D0010020804A08008C4A080033
:10179C00381C002030040020280400207C4808005D
:1017AC00081D002038040020141A0020A802002074
:1017BC00441C002020040020121D0020E403002003
:1017CC002115080034030020012110F01F02914064
:1017DC00DFF8502840B2430942F82310704701212A
:1017EC0010F01F029140DFF8402840B2430942F844
:1017FC00231070472DE9F04704002078022804D00C
:10180C0034D3042821D010D330E0DFF820080500B1
:10181C0050200600DFF818080700082080467FF0EB
:10182C00080081461A20824622E0DFF808080500ED
:10183C0060200600DFF800080700002080465FF0FB
:10184C00FF3081463020824612E0DFF8F0070500B9
:10185C0050200600DFF8E80707005FF40020804600
:10186C005FF0FF3081460020824601E0002063E0FB
:10187C002869C00201D500205EE0DFF8C8070068C7
:10188C00012195F9262091400843DFF8B81708602C
:10189C0060686860A068A860207B2873607B6873B0
:1018AC00206968616069A861A069E861E0692862E3
:1018BC00208CA884286950F4801028612868066060
:1018CC00286847602868C0F808802868C0F80C9021
:1018DC002868C0F820A0687B01281BD1A069296862
:1018EC00C1F80001A069401C2968C1F81001012051
:1018FC002968C1F8040101202968C1F814010020ED
:10190C00286240F201102968C1F820015FF4002020
:10191C0029688860687B022803D1DFF82C072968C6
:10192C00886095F9260040B2FFF759FF95F926001B
:10193C0040B2FFF749FF2800BDE8F087F8B5040076
:10194C000D0016003200290014F1280000F058FC9C
:10195C000700002F01D1002007E0DFF8F406006833
:10196C00002801D500F087F83800F2BD70B5DFF81B
:10197C00E806DFF8B81608600020DFF8B0164860FB
:10198C000020DFF8A81688620020DFF8A016C861D6
:10199C000020DFF8981688840020DFF89016086283
:1019AC000020DFF8881608610D20DFF8801681F81A
:1019BC002600DFF8A806DFF87C1608600020DFF8A8
:1019CC00741648600020DFF86C1688620020DFF87F
:1019DC006416C8610020DFF85C1688840020DFF8EC
:1019EC00541608620020DFF84C1608610E20DFF850
:1019FC00441681F82600DFF86806DFF84016086008
:101A0C000020DFF8381648600020DFF830168862B6
:101A1C000020DFF82816C8610020DFF82016888423
:101A2C000020DFF8181608620020DFF81016086195
:101A3C000F20DFF8081681F82600DFF8F005DFF834
:101A4C00241608608024FF25DFF808662A00210090
:101A5C00300001F079F90FF20D40DFF8F015086055
:101A6C00DFF80406FFF71EFB70BD80B5DFF8DC0560
:101A7C000068804701BD80B5DFF8F005006850F0C4
:101A8C000100DFF8E8150860DFF8A005DFF8D415D1
:101A9C000860DFF8D8050078C0070FD5DFF8AC0573
:101AAC0000688047DFF8C8050068DFF8C8150860D3
:101ABC000121DFF8C005FFF74BFAEAE701BD80B55D
:101ACC00DFF87005DFF8B0150860DFF8B405DFF853
:101ADC00AC150860DFF8AC050068401CDFF8A415F5
:101AEC00086000F016F801BD80B5DFF85005DFF88E
:101AFC0088150860DFF89005DFF880150860DFF8BE
:101B0C008C050068401CDFF88415086000F001F8B3
:101B1C0001BD70B5DFF8600500680068406906001B
:101B2C00DFF85405006800680069000338D53003FD
:101B3C0036D5DFF8440500684068C06BDFF838150F
:101B4C0009688968084214D1DFF83005006800681C
:101B5C0050F00100DFF8241509680860DFF81C0557
:101B6C000068006830F00600DFF81015096808609E
:101B7C0016E0DFF808050068006840084000DFF850
:101B8C00FC1409680860DFF8F0040068407B012849
:101B9C0006D10120DFF8E01409680968C1F80401D6
:101BAC00DFF8D404006800680069800570D5B005C2
:101BBC006ED5DFF8C4040068C06A401EDFF8B814A4
:101BCC000968C862DFF8B004006800688069040026
:101BDC00DFF8A4040068C06A002825D0DFF8980458
:101BEC000068006B401CDFF8901409680863DFF88C
:101BFC0088040068006B00780400DFF87C0400683F
:101C0C00007B012803D194FAA4F0000E04002000FC
:101C1C00C0B2DFF8641409680968C861DFF85804B9
:101C2C0000684069804733E04FF40070DFF84814D7
:101C3C0009680968C860DFF840040068006930F47E
:101C4C000010DFF83414096808610421DFF8280457
:101C5C000068806A006800F0B9FBDFF81C040068BB
:101C6C00283000F04AFB0120DFF80C1409680968E1
:101C7C008860DFF808040068006850F00200DFF8A4
:101C8C00FC1309680860DFF8F003006840698047BE
:101C9C00DFF8E403006800680069C00737D5DFF897
:101CAC00D803006800684069C00730D5DFF8C80366
:101CBC00006800688069C0B20400DFF8BC030068EB
:101CCC00007B012803D194FAA4F0000E040020003C
:101CDC00C0B2FF2806D1DFF8B8030068401CDFF85B
:101CEC00B0130860DFF890030068006A00680470A5
:101CFC00DFF888030068006850F00400DFF87C13FC
:101D0C0009680860DFF87003006880698047DFF8B5
:101D1C006803006800680069000762D5300760D569
:101D2C00DFF854030068407B00282BD10421DFF836
:101D3C0048030068806A006800F048FBDFF838034D
:101D4C000068283000F0D9FADFF82C03006800692D
:101D5C0030F48000DFF8201309680861DFF81803FD
:101D6C0000688068C4490968496808630220C24950
:101D7C0009680968C1F820010820BF490968096889
:101D8C00C8602EE0BD480068006850F00400BB49F4
:101D9C0009680860B84800680068D0F81001401C59
:101DAC00B54909680968C1F81001B34800680068B2
:101DBC00D0F80001B0490968C969AF4A1268928C21
:101DCC005118884207D1AC480068C069AA49096813
:101DDC000968C1F800010120A74909680968C1F820
:101DEC001401A548006800680069C00639D5F006E2
:101DFC0037D50421A0480068806A006800F0E6FA34
:101E0C009D480068283000F078FA9B48006800690B
:101E1C0030F400109849096808614FF40070964935
:101E2C0009680968C1F820011020934909680968FC
:101E3C00C860002005009048006800684069800573
:101E4C0003D4642D01D26D1CF5E78B480068407BF0
:101E5C00002806D188480068806887490968496865
:101E6C00086370BD10B57F480068806A002800F0D8
:101E7C00B5807C480068006910F4C00F40F0AE805B
:101E8C0078480068407B002806D176480068806856
:101E9C00744909684968486372480068806A083068
:101EAC006C4988422CD103216E480068806A006816
:101EBC0000F08CFA6B480068006950F480006949A6
:101ECC000968086167480068806A083065490968D4
:101EDC000968C1F8000163480068806A406861497C
:101EEC0009680968C1F8040108205E490968096895
:101EFC00886001205B4909680968C1F820016DE020
:101F0C00022158480068806A006800F05FFA554862
:101F1C000068006950F40010524909680861514882
:101F2C000068407B02283BD14E480068806A4068BC
:101F3C004C490968C8624B480068806A08304949B6
:101F4C000968086347480068006B0078040045483E
:101F5C000068007B012803D194FAA4F0000E040061
:101F6C000820404909680968086040203D49096813
:101F7C00096808602000C0B23A4909680968C8615C
:101F8C000120384909680968C8604FF40070354968
:101F9C0009680968886033480068406980471DE01B
:101FAC0030480068806A08302E4909680968C1F811
:101FBC0008012C480068806A40682A490968096849
:101FCC00C1F80C01102027490968096888604FF492
:101FDC008070244909680968C1F82001214800680B
:101FEC0090F826000D2804D015D30F2809D004D35F
:101FFC0011E010481B49086013E0104819490860AB
:10200C000FE00A481749086018480068400840006B
:10201C001649086005E01F48FFF744F803481149CA
:10202C00086010BD00E100E080E200E0141A00201E
:10203C00C0084000481A0020CE1845007C1A002029
:10204C00FF18410010040E4001000800A41C0020E1
:10205C005C1C00205419002000000940004009407D
:10206C0000800940B01C002064030020AC1C002040
:10207C00741C0020A81C0020B41C0020B81C0020DC
:10208C009C1C0020BC1C0020A01C0020C01C00209C
:10209C00C41C00207C03002070B5054605F10F0020
:1020AC00C408E400C046C046A54232D2082C04D273
:1020BC00082402E0083000F047F8224802681100BA
:1020CC000CD1011D0A6802B31368A34238BF111D5D
:1020DC00F8D310E01D68A5420DD2191D0B68002B1A
:1020EC00F8D11268011D00E0191D0B6893420CD049
:1020FC001D68A542F8D361B10D682A68A2F10803E6
:10210C00A3420AD26A680A600FE000F051FE002870
:10211C00D0D1C046C046002070BD63190B60121BA5
:10212C006E685E600B681A602C60096800291DBF20
:10213C004A68002A091D00210160C046C04605F10D
:10214C00080070BDD01B002000B9704738B5A0F155
:10215C0008042068082833D310F0070F30D1C0468C
:10216C00C0461848416809B18C4203D26160446092
:10217C0017E019464B680BB1A342FAD30B685D18F4
:10218C00AC421BD3A54204D12268D2180A600C467B
:10219C0007E04A681AB123681B199A420ED3626091
:1021AC004C60616851B1226813198B4206D100232F
:1021BC00036008688018206048686060C046C046AC
:1021CC0031BD0000D01B00200100FF209A4A13688B
:1021DC008B4204D0994B9A4201D00C32F7E7974BC3
:1021EC009A420BD013791800C0B2042802D0C0B2A6
:1021FC00052803D10023136000231371C0B270476C
:10220C002DE9F84F04000D001600AB465FF00009F5
:10221C008B480078102807D18A48006850F00100DC
:10222C0088490860002066E0BBF1000F62D084484A
:10223C000078401C82490870814800780E2806DB23
:10224C008048006850F002007E49086005E07D4837
:10225C00006830F002007B4908607B4882469AF89F
:10226C000000002802D11AF1900AF8E700208AF841
:10227C0000001AF104000700BBF1810F04D3802089
:10228C008146BBF1800B02E0D946002083466F48A3
:10229C0000683860C7F804900020C7F88800002058
:1022AC007968884205D23178C2191172761C401CAB
:1022BC00F6E72068002801D127600AE020688046F4
:1022CC00D8F88800002802D0D8F88880F8E7C8F839
:1022DC0088705E48006800F087F85C480068401C15
:1022EC005A4908605948006800289DD10120574977
:1022FC00086099E73868BDE8F28F0268002A06D1B9
:10230C00504A126852F004024E4B1A601FE04E4ABB
:10231C0011000A1D03689A4204D04D4A914201D023
:10232C009031F6E74A4A914206D1464A126852F079
:10233C000802444B1A600AE00268D2F88820026056
:10234C0001220A703E4A1278521E3D4B1A70704799
:10235C0000203B49087001203C490860002080B2F5
:10236C00102808DA0121384A80B2902303FB00229E
:10237C001170401CF3E7002080B2402816DA0021CF
:10238C002D4A80B20C2303FB0022116000212A4A43
:10239C0080B20C2303FB002211710021264A80B26B
:1023AC000C2303FB00229160401CE5E722482949DD
:1023BC0008600020234908600FF26100264908607C
:1023CC00704780B524480068804701BD1A4A1368DD
:1023DC00834204D0194B9A4201D00C32F7E7174BC9
:1023EC009A4200D0117170471A490968086001219E
:1023FC00184A1268117119490968164A12689160D5
:10240C00144909680C31134A1160124909680B4AC6
:10241C00914202D108490F4A116070471048006878
:10242C00401E0F4908600E480068002803D14FF485
:10243C007A700B490860704730110020301400206E
:10244C00131D0020641C0020480400206C1C00207C
:10245C00480D0020701C0020681C0020741C0020FB
:10246C003C0400205FEA000C830706D011F8013B06
:10247C0000F8013BB3B18307F8D10A68B2F101331C
:10248C0023EA020313F0803F02BF40F8042B51F8FB
:10249C00042FF3E711F8013B00F8013B13B111F8DD
:1024AC00013BF9E760467047012110F01F02914093
:1024BC00DFF8FC2440B2430942F823107047012195
:1024CC0010F01F029140DFF8EC2440B2430942F8AF
:1024DC00231070472DE9F04704002078012806D01E
:1024EC0046D3032823D012D3042830D040E0DFF8A1
:1024FC00C804050050200600DFF8C00407000020C7
:10250C0080465FF0FF3081461A20824632E0DFF8C9
:10251C00B004050050200600DFF8A00407000820D6
:10252C0080467FF0080081461A20824622E0DFF8C0
:10253C009404050060200600DFF88C0407000020DE
:10254C0080465FF0FF3081463020824612E0DFF893
:10255C007C04050050200600DFF8740407005FF4CB
:10256C00002080465FF0FF3081460020824601E06B
:10257C00002049E02879C00701D5002044E0DFF8AD
:10258C0054040068012195F9222091400843DFF89A
:10259C00441408606068686160882884A068A86139
:1025AC00E068E861686850F00100686028680660BF
:1025BC00286847602868C0F808802868C0F80C9024
:1025CC002868C0F820A060682968C1F8000160681C
:1025DC00401C2968C1F8100101202968C1F80401C8
:1025EC0001202968C1F8140140F201102968C1F8D2
:1025FC00200195F9220040B2FFF761FF95F9220006
:10260C0040B2FFF751FF2800BDE8F08770B582B0EB
:10261C0004000D008DF8005000AA012114F10800EF
:10262C00FFF7EEFD0600002E06D0DFF8B0030068C1
:10263C00002801D500F09BF8300076BDF8B50400F9
:10264C000D0016003200290014F10800FFF7D8FD28
:10265C000700002F06D0DFF884030068002801D59E
:10266C0000F085F83800F2BD0020DFF87413086024
:10267C00DFF87003DFF8401308600020DFF8381330
:10268C0088600020DFF8301348610020DFF8281341
:10269C0008840020DFF8201388610020DFF818136D
:1026AC0048600820DFF8101381F82200DFF83803A7
:1026BC00DFF80C1308600020DFF80413886000209A
:1026CC00DFF8FC1248610020DFF8F41208840020C7
:1026DC00DFF8EC1288610020DFF8E41248600D206E
:1026EC00DFF8DC1281F82200DFF80003DFF8D412E7
:1026FC0008600020DFF8CC1288600020DFF8C412DC
:10270C0048610020DFF8BC1208840020DFF8B41206
:10271C0088610020DFF8AC1248600E20DFF8A412AC
:10272C0081F82200DFF8C802DFF8A0120860002050
:10273C00A64988600020A54948610020A349088467
:10274C000020A24988610020A04948600F209F49C1
:10275C0081F822009848A74908600FF27D109E4925
:10276C000860704780B59C480068804701BD80B503
:10277C009B48006850F00100994908608E489D49BB
:10278C00086097480078C0070BD5934800688047CD
:10279C00994800689949086001219848FEF7D8FBD0
:1027AC00EFE701BD80B58448954908609548964986
:1027BC00086096480068401C9449086000F010F8C6
:1027CC0001BD80B57E488E49086091488E490860ED
:1027DC0090480068401C8F49086000F001F801BD6A
:1027EC0080B58748006800680069000738D58448C0
:1027FC00006800684069000732D5834800680068AB
:10280C0050F002008049096808607D480068006843
:10281C00D0F81001401C7A4909680968C1F8100108
:10282C00774800680068D0F8100175490968496953
:10283C00734A1268128C5118884207D1704800688C
:10284C0040696F4909680968C1F810016C48006853
:10285C00C069804701206A4909680968C1F81401F8
:10286C006748006800680069C00632D56448006893
:10287C0000684069C0062CD5042161480068806856
:10288C000068FFF7A3FD5E4800680830FFF735FDD0
:10289C005B480068406830F400105949096848608A
:1028AC004FF40070564909680968C1F820011020DE
:1028BC00534909680968C86057480078002805D052
:1028CC0055480078401E5449087002E05348FEF702
:1028DC00E9FB01BD0000000080B546480068806837
:1028EC00002836D0434800684068800231D4022169
:1028FC004048006880680068FFF768FD3D48006844
:10290C00406850F400103B49096848603948006839
:10291C0080680830374909680968C1F808013548EA
:10292C00006880684068334909680968C1F80C017F
:10293C001020304909680968886037480078401CC5
:10294C00354908704FF480702A4909680968C1F844
:10295C0020012848006890F82200082806D00D288D
:10296C0008D00E280AD00F280CD01DE0144821499D
:10297C0008601CE013481F49086018E013481D4903
:10298C00086014E00C481B490860144800680028D3
:10299C0009D521480078002805D111480068400865
:1029AC0040000F49086002E003481249086001BD6D
:1029BC0000E100E080E200E0D41A0020C0084000F2
:1029CC00F81A00201C1B0020CE184500401B0020CC
:1029DC00FF18410010040E40D01C00205C1C00208D
:1029EC00D81C002000060E400000094000400940A1
:1029FC0000800940DC1C0020741C0020D41C00202A
:102A0C00E01C0020C81C0020E41C0020E81C002056
:102A1C00CC1C0020EC1C0020171D0020EC480800EA
:102A2C0010B4DFF80423C0B20A2303FB0022D279CE
:102A3C00012A0CD1DFF8F422DFF8EC32C0B20A2400
:102A4C0004FB00331B7A12EB8302110009E0B84A35
:102A5C00B54BC0B20A2404FB00331B7A12EB830281
:102A6C001100B44AC0B252F820200A600022AE4BCA
:102A7C00C0B20A2404FB00331A7010BC704710B4A7
:102A8C00A94AC0B20A2303FB0022D279012A0AD137
:102A9C00A74AA54BC0B20A2404FB00331B7A12EBE5
:102AAC008302110009E0A14A9F4BC0B20A2404FB27
:102ABC0000331B7A12EB830211009E4AC0B252F80B
:102ACC0020200A600022984BC0B20A2404FB003379
:102ADC001A7010BC70479849934AC0B20A2303FB82
:102AEC000022127A11EB82010A68924BC0B253F8A1
:102AFC0020305A400A6070472DE9F04182B04FF403
:102B0C007A644FF4FA75601B1421B0FBF1F61427AC
:102B1C00FFB2002F30D05FF028081FFA88F8B8F108
:102B2C00000F0DD0854800680090012100A8FEF729
:102B3C000FFA0028F9D000F044F8B8F10108ECE7DE
:102B4C00FFB2142F06D140F2DC5100A8FEF700FAB8
:102B5C000028F8D00020C0B20B2809DAFFB2791E89
:102B6C00714AC0B20A2303FB00225180401CF2E7D9
:102B7C00A41B75197F1ECBE700F023F8C82100A811
:102B8C00FEF7E6F90028F9D00020C0B20B2804DAD1
:102B9C000021654A1170401CF7E70820FFF740FF41
:102BAC000920FFF73DFF0A20FFF73AFF6448006851
:102BBC0050F00100624908606248FEF773FABDE804
:102BCC00F38110B50024E4B20B2C80F2AA80564895
:102BDC00E4B20A2101FB04000078012872D15248AA
:102BEC00E4B20A2101FB0400B0F90200002804D170
:102BFC002000C0B2FFF743FF5CE04B48E4B20A216F
:102C0C0001FB0400B0F90200142804D12000C0B26A
:102C1C00FFF706FF4EE04448E4B20A2101FB040032
:102C2C008088401E4049E4B20A2202FB04118880CD
:102C3C003D48E4B20A2101FB04008088002839D108
:102C4C003948E4B20A2101FB0400807901281AD129
:102C5C002000C0B2FFF713FF3348E4B20A2101FB96
:102C6C000400B0F90200D0F114002F49E4B20A229A
:102C7C0002FB0411888000202B49E4B20A2202FBDB
:102C8C000411887116E02000C0B2FFF7C9FE264877
:102C9C00E4B20A2101FB040040882349E4B20A2271
:102CAC0002FB0411888001201F49E4B20A2202FBB6
:102CBC000411887101201C49E4B20A2202FB0411A0
:102CCC0008702CE01848E4B20A2101FB04000078DB
:102CDC00022824D11448E4B20A2101FB04008088A4
:102CEC00401E1149E4B20A2202FB041188800E48EE
:102CFC00E4B20A2101FB0400808800280FD12000D7
:102D0C00C0B2FFF7E8FE0848E4B20A2101FB040058
:102D1C0040880549E4B20A2202FB04118880641C35
:102D2C0051E710BD000000008C000020300C0E405C
:102D3C00340C0E403C020020380C0E40741C002059
:102D4C00601C00204C03002062F30F2262F31F4230
:102D5C00401810F0030308D0C91A1FD3DB0748BF73
:102D6C0000F8012D28BF20F8022D130030B41446B2
:102D7C001546103928BF20E93C00FAD8490728BF6E
:102D8C0020E90C0048BF40F8042D890028BF20F82A
:102D9C00022D48BF00F8012D30BC7047C91818BF70
:102DAC0000F8012DCB0728BF00F8012D70470A0D44
:102DBC000749086808B1002070470648C008C000E1
:102DCC0008600549C908C900091A0160704700BFAD
:102DDC00041D0020271D0020203D0020012110F0A3
:102DEC001F029140DFF8902740B2430942F82310AC
:102DFC007047012110F01F029140DFF8802740B28C
:102E0C00430942F823107047F8B504000D00160072
:102E1C008DF80050DFF868070078102801D10020E9
:102E2C005CE000AA0121DFF85C070068001DFFF7D9
:102E3C00E7F90700002F50D00020DFF84C17DFF81F
:102E4C004C271278120150540120DFF83C17DFF8A0
:102E5C003C27127811EB02114860DFF82C07DFF8E1
:102E6C002C17097810EB01100472DFF81C07DFF83F
:102E7C001C17097810EB011086720020DFF8081778
:102E8C00DFF80827127811EB021148720020DFF8E6
:102E9C00F816DFF8F826127811EB0211C860DFF88B
:102EAC00EC060078401CDFF8E4160870DFF8D0065A
:102EBC000078401CDFF8C8160870DFF8D0060078E0
:102ECC00102803D10020DFF8C4160870DFF8C00604
:102EDC000068002801D500F041F93800F2BD2DE959
:102EEC00F04104000D0016001F00DFF89406007876
:102EFC00102801D100205DE032002900DFF88406A3
:102F0C000068001DFFF77CF98046B8F1000F50D027
:102F1C000020DFF87416DFF8742612781201505472
:102F2C000120DFF86416DFF86426127811EB021129
:102F3C004860DFF85406DFF85416097810EB0110DE
:102F4C000472DFF84406DFF84416097810EB011020
:102F5C0087720020DFF83016DFF83026127811EB7C
:102F6C00021148720020DFF82016DFF820261278B4
:102F7C0011EB0211C860DFF814060078401CDFF872
:102F8C000C160870DFF8F8050078401CDFF8F01517
:102F9C000870DFF8F8050078102803D10020DFF85E
:102FAC00EC150870DFF8E8050068002801D500F082
:102FBC00D5F84046BDE8F08110B51224DFF8D405F1
:102FCC0000680121A1400843DFF8C8150860002003
:102FDC00DFF8C4150860DFF8C405DFF8A815086031
:102FEC000020DFF8A81508700020DFF8B415087071
:102FFC000020DFF88C150870DFF8A805DFF89C15A9
:10300C0008600020DFF8941548600020DFF88C156C
:10301C0088600020DFF88415C860DFF86805006858
:10302C000068006850F08000DFF8581509680968DE
:10303C000860DFF874050068DFF87015086005217A
:10304C00DFF86805FDF784FF0028F8D0DFF860058D
:10305C00DFF830150968096808612420DFF82415A9
:10306C000968096808600020DFF818150968096804
:10307C0048604FF4A170DFF80C15096809684862C4
:10308C004FF63560DFF8FC14096809688862200087
:10309C0040B2FFF7AEFE200040B2FFF79FFE0020CB
:1030AC00DFF8101508600020DFF80C1508600FF22F
:1030BC00A510DFF80815086010BD80B5DFF8FC041A
:1030CC000068804701BD0120C0B200281DD0DFF888
:1030DC00E4140968002918D0DFF8DC1409680978B1
:1030EC00DFF8A024126812685163DFF8CC14096869
:1030FC00491CDFF8C4241160DFF8B8140968491EB4
:10310C00DFF8B0241160401EDEE7DFF8A814096870
:10311C0000291CD10421DFF86C241268126891621A
:10312C00DFF86414DFF87824127811EB0211897A35
:10313C00002912D1DFF84C1409680968096851F0AC
:10314C000201DFF8402412681268116005E00421C6
:10315C00DFF83024126812685162704780B5DFF8CE
:10316C003804006850F00100DFF82C140860DFF818
:10317C0038040068DFF834140860DFF81C040078A9
:10318C00C00709D5DFF83404006880470121DFF857
:10319C001C04FDF7DDFEF0E701BD10B5DFF82004DF
:1031AC0000680400DFF81C0400680440E00508D542
:1031BC00DFF8E403006850F08070DFF8DC1308607F
:1031CC0046E0A00731D5DFF8BC030068007B0007A0
:1031DC002BD5DFF8B00300680068006BDFF8A41390
:1031EC00096889680870DFF89C0300688068401CD7
:1031FC00DFF8901309688860DFF8B8030068401E98
:10320C00DFF8B0130860DFF8AC03006801281FD1A9
:10321C00DFF8700300680068006850F00200DFF807
:10322C00641309680968086012E0600708D5DFF8C4
:10323C0054030068007B800702D5FFF744FF07E0CA
:10324C00DFF85403006850F00070DFF84C1308608E
:10325C0010BD000080B5DFF834030078DFF84013B0
:10326C000978884200F096800020DFF8181309686E
:10327C00096848602420DFF80C13096809680860A5
:10328C00DFF80403DFF8181309780901085C00283B
:10329C0032D1BC48006800684068BB49DFF80023A5
:1032AC00127811EB0211097A50EA0140B54909680C
:1032BC0009684860B348006840684068BD490860C8
:1032CC00B048006840680830BB490860FFF7FBFE57
:1032DC000221AC48006840680068FFF777F8A948FD
:1032EC000068C06850F00600A6490968C8600FF273
:1032FC00A900B249086044E0A348A949097809012A
:10330C00085C01283DD19F480068006840689D49D1
:10331C000968096848609C48A149097810EB0110BC
:10332C004068A449086098489D49097810EB011041
:10333C00C0689449096888609E48006801280AD1D1
:10334C00904800680068006850F003008D490968D7
:10335C000968086009E08B4800680068006850F054
:10336C000100884909680968086086480068C068D7
:10337C0050F0080083490968C8600FF2F1008F49CA
:10338C0008608548006810F07F4F03D00FF255108D
:10339C008A49086001BD000080B57B4880490978E6
:1033AC0010EB0110807A002818D1824800680028A0
:1033BC0026D1744800680068006A400720D571481F
:1033CC0000680068006AC0071AD56E480068C068BB
:1033DC0030F006006B490968C86011E07548006858
:1033EC0000280DD1674800680068006A400707D5BF
:1033FC0064480068C06830F0020062490968C8601F
:10340C0060480068007B800725D404215D48006873
:10341C0040680068FEF7DAFF5A480068001DFEF7A6
:10342C006CFF5D480068400840005B4908606648D6
:10343C00624908605A480078401C59490870504845
:10344C000078401E4E49087055480078102802D16B
:10345C000020534908705048006810F07F4F03D08B
:10346C000FF281005549086001BD00005148006809
:10347C0000282DD1434800680068006A800727D5D2
:10348C00404800680068006AC00721D53D480068C4
:10349C00C06830F008003B490968C8603E480068C5
:1034AC00400840003C4908604748444908603C4893
:1034BC000078401C3A49087031480078401E304969
:1034CC00087037480078102802D100203449087061
:1034DC003148006810F07F4F03D00FF209003749D4
:1034EC000860704780B52C480068C0013AD5264862
:1034FC002649097810EB0110407A401C2249234AD6
:10350C00127811EB021148721F482049097810EB10
:10351C000110407A032821D121480078401C204911
:10352C00087017480078401E154908701C48007830
:10353C00102802D100201A49087012480068007B3C
:10354C0080070BD506210F48006840680068FEF71D
:10355C003DFF0C480068001DFEF7CFFE0020094916
:10356C000968C8600C4800680002000A0A49086033
:10357C0015481249086001BD00E100E080E200E05E
:10358C00161D0020901C002054170020141D002034
:10359C005C1C002010040E408C1C0020A81B00207A
:1035AC00151D002000400840741C0020881C0020C1
:1035BC001D1D0200941C0020981C0020841C00205F
:1035CC002C4008402040084061320800DFF8CC0253
:1035DC00DFF8CC1208600420B24908604FF4807008
:1035EC00B1490860B148B2490860B2480068C007E8
:1035FC00FBD5AF480068B0490843AD490860AF48F7
:10360C00AF490860AB4800688007FBD54FF40070E9
:10361C00AC49086042F21100AB490860A54800684B
:10362C000007FBD542F21200A7490860A1480068C8
:10363C000007FBD5A548006850F44410A349086066
:10364C009C4800684006FBD570470020A0490860E4
:10365C000020A049086041F26F709F49086000206B
:10366C009E49086003209E490860704780B59848C1
:10367C0000689C490968401A012817D09A480068CC
:10368C00401C994908609948006850F020009749FF
:10369C00086097480078C00708D59648FDF702FDEA
:1036AC0091480068FDF71EFDFDF70EFD8848006887
:1036BC008C4908609048006830F480108E4908608E
:1036CC008E48006830F004008C4908608748006818
:1036DC0050F080408549086084480068400001D55E
:1036EC0030BFF9E701BD864886490860864887499E
:1036FC000860704780B586488649086086488749C7
:10370C000860874887490860874888490860002016
:10371C008749086000208749086087488749086006
:10372C005FF04050864908608648874908608748A2
:10373C00874908607FF001008649086001208649AE
:10374C0008605FF0F64085490860002084490860F5
:10375C00002084490860002083490860834884491C
:10376C0008600020834908608348844908608448C5
:10377C008449086084488549086085488549086003
:10378C0000208549086000208449086084488549E8
:10379C0008600020844908600020844908607FF09C
:1037AC007E40834908608348834908604FF4F07079
:1037BC00824908607248824908600020814908608B
:1037CC0000208149086000208049086080488149B8
:1037DC00086000208049086000F001F801BD5FF02E
:1037EC0001107E49086000207D49086003207D4956
:1037FC00086041F270707C49086041F270707B493E
:10380C00086042F6E0607A49086042F6E060794967
:10381C00086003207849086040F2DC507749086062
:10382C0040F2DC507649086040F6B83075490860C3
:10383C0040F6B83074490860704710B4734B89B2C5
:10384C00B3FBF1F31A0001280FD1714B1B68DB0796
:10385C0005D5664B1A605308664C236016E0624B24
:10386C001A605308624C236010E002280ED1684B9A
:10387C001B689B0705D5624B1A605308624C23608A
:10388C0004E05E4B1A6053085E4C236010BC70471A
:10389C0060490860704760490860704773EDFC2709
:1038AC0010040E4040040E4000040E4019F0370086
:1038BC0020040E4068040E4000003701013F072031
:1038CC0028040E4000080E4030040E401C040E402C
:1038DC00741C0020781C002014E000E018E000E0CC
:1038EC0010E000E0801C00207C1C00205C1C0020F0
:1038FC00381C0020C802002070040E4010ED00E0BF
:10390C000085011054120E40010000A550120E400B
:10391C0007000384000C0E40F8FFFC7B040C0E40E7
:10392C00F9D755BF100C0E400628AA40140C0E40B7
:10393C00200C0E40240C0E4000000188300C0E4070
:10394C00340C0E4000060004500C0E40FFF9FFFB37
:10395C00540C0E40600C0E40640C0E40700C0E406B
:10396C00800C0E40840C0E408C0C0E40000001B4F8
:10397C00A00C0E40A40C0E40E7FFBF01000E0E4041
:10398C0018004000040E0E40E0FFBF01100E0E4068
:10399C001F004000140E0E40200E0E40240E0E4050
:1039AC0000FEBF01300E0E40340E0E40500E0E4085
:1039BC00540E0E401FFEFF01600E0E40640E0E40B2
:1039CC00700E0E40800E0E40840E0E408C0E0E407B
:1039DC00E0FF1F00A00E0E40A40E0E4000C00840D9
:1039EC0020C0084000C208400CC2084010C2084069
:1039FC0004C2084008C2084020C208402CC208403B
:103A0C0030C2084024C2084028C20840808D5B00A8
:103A1C000CC0084004C0084008C00840012110F048
:103A2C001F0291408D4A40B2430942F8231070475F
:103A3C00012110F01F029140894A40B2430942F81B
:103A4C002310704701008848085C012801D101202F
:103A5C0000E0002070470021834A8154704738B53C
:103A6C00002400250020C0B204280DDA0021804A71
:103A7C00C0B2815400217B4AC0B2815400217D4ADE
:103A8C00C0B28154401CEEE70020C0B204281ADA00
:103A9C007949C0B211EB40014978002905D1774929
:103AAC00C0B251F820100C430BE07349C0B211EBBB
:103ABC0040014978802904D17049C0B251F82010D6
:103ACC000D43401CE1E76E4804606E4805606E488B
:103ADC00006804006D48006805000A20FFF7A8FF85
:103AEC000B20FFF7A5FF0A20FFF798FF0B20FFF72D
:103AFC0095FF0FF24D00664908606648006850F06B
:103B0C000200644908606448FDF7CCFA31BD80B509
:103B1C005F480068804701BD0200D2B2042A0CDA6B
:103B2C005548D2B210EB42004078C9B2884204D159
:103B3C005248D2B250F8220000E00020704700003A
:103B4C000020C0B204280ADA4949C0B2415C0029FD
:103B5C0003D00FF20D014E4A1160401CF1E7704783
:103B6C0070B54E484A4908600026F6B2042E74DA45
:103B7C004B484149F6B211EB4601497810EB8100F4
:103B8C0004003F483C49F6B211EB4601497810EB72
:103B9C00810005003648F6B2305C00285BD0414805
:103BAC003B49086019214048F6B210EB8600FDF73E
:103BBC00CFF900284FD03048F6B210F81600002884
:103BCC0011D12068C0432D49F6B251F82610084295
:103BDC0004D001202749F6B2705414E00020254986
:103BEC00F6B270540FE020682449F6B251F8261052
:103BFC00084204D001201F49F6B2705403E00020A3
:103C0C001C49F6B270541B48F6B2305C1549F6B23A
:103C1C00715C884214D01748F6B2305C1149F6B288
:103C2C0070541048F6B2305C012809D101200E49BD
:103C3C00F6B270541D4800680C49F6B241F82600E3
:103C4C0000200B49F6B2705428680C49F6B251F8B2
:103C5C00261008432860761C87E770BD00E100E061
:103C6C0080E200E02C1C0020341C0020981B00205B
:103C7C00241C0020301C002018040020704A08006E
:103C8C00400C0E40400E0E404C0C0E404C0E0E40A4
:103C9C00281C0020601C0020D00300204D3B080095
:103CAC003C0C0E406D3B0800881B0020741C00204F
:103CBC0000B58BB04FF47A710120FFF7BEFD05A85B
:103CCC0075491322FDF7A2F900A874491422FDF7D7
:103CDC00ADF9012000F0FCF805A9002000F00DF969
:103CEC0000A9402000F009F90FF215006C4908609A
:103CFC000BB000BD80B56A480068804701BD00006C
:103D0C0080B5002000F08BF900F08CF900F09AF9E6
:103D1C00652190FBF1F201FB1200624908706249C7
:103D2C0060480078FDF730F95F48FDF7BBF90020DB
:103D3C00FFF788FE00281ED00020FFF78CFE012024
:103D4C0000F0C6F852A1422000F0D7F801205749E4
:103D5C0008700720FEF793FE0120FFF79CFD53200F
:103D6C0053490870002053490870012052490870CB
:103D7C00F420524908704D480078002800F08780E4
:103D8C004F480078401C4E4908704D4800784B490C
:103D9C000978884231D1002049490870012000F08F
:103DAC0097F844480078002804D039A1022000F08C
:103DBC00A4F807E040480078002803D034A1422042
:103DCC0000F09BF833A13A48007800F096F8384898
:103DDC000078401E3649087035480078401C402851
:103DEC000BD136480078332804DB344800780A3885
:103DFC003249087053202E4908700120FFF722FE2B
:103E0C0000280FD00120FFF726FE01202949087059
:103E1C0000202949087000202A4908701CA10220A2
:103E2C0000F06BF80220FFF70DFE00280FD00220E7
:103E3C00FFF711FE00201F49087001201E49087071
:103E4C0001202049087012A1422000F056F81848B1
:103E5C000078401C42281AD11A480078002816D045
:103E6C000020184908700020104908700720FEF740
:103E7C00D7FD0120FFF70CFD012000F029F81249B5
:103E8C00052000F03AF81149402000F036F801BD49
:103E9C003800000030000000344A0800484A08008E
:103EAC00001D00201C1D0020480D0020191D0020A5
:103EBC00440400201A1D002042040020430400206A
:103ECC00181D00201B1D0020984A08005C4A0800A1
:103EDC0010B50400464844700023454A02213C209A
:103EEC00FEF7FDFF43480068002805D50020424935
:103EFC00884201D2401CFAE710BD70B504000D00D9
:103F0C0054F08000C0B2FFF7E3FF012006002878D0
:103F1C00002806D028783949F6B270546D1C761CEE
:103F2C00F5E70023354AF6B231003C20FEF7D7FF07
:103F3C0070BD00B589B000A831490CC90CC0083956
:103F4C00083802A82F491622FDF760F80FF2CD00B1
:103F5C002D4908604FF400702C4908602C4800680B
:103F6C002C49086028212B48FCF7F2FF0028F9D0D7
:103F7C00012200213C20FEF747FF012300AA062165
:103F8C003C20FEF7ACFF2248006822490860C8219B
:103F9C002048FCF7DDFF0028F9D000220C213C2042
:103FAC00FEF732FF0820FEF73BFD0920FEF738FD37
:103FBC000A20FEF735FD012240213C20FEF724FFAC
:103FCC00002302AA14213C20FEF789FF1048006848
:103FDC00104908601048006850F008000E4908604D
:103FEC0009B000BD80B508480068804701BD0000DD
:103FFC000A1D00205C1C0020A0860100100200207D
:10400C00C04A0800B4490800541C0020300E0E4071
:10401C00741C0020581C0020601C0020704700F00D
:10402C0081B8000010B50446044800F084F8002163
:10403C000170034800F07FF8046010BD0000002000
:10404C0004000020F8B5344F384600F074F80446EC
:10405C00381D00F070F8054607F1080000F06BF809
:10406C00064607F10C0000F066F823782B492C4A21
:10407C00002B40D12B6802FB03132B60082702FB9B
:10408C0003132B6002FB03132B6002FB03132B6047
:10409C0002FB03132B6002FB03132B6002FB0313C5
:1040AC002B6002FB03132B600346D5F800C002FB08
:1040BC000C1CC5F800C043F804CB7F1ED5F800C01B
:1040CC0002FB0C1CC5F800C043F804CBD5F800C0AB
:1040DC0002FB0C1CC5F800C043F804CBD5F800C09B
:1040EC0002FB0C1CC5F800C043F804CBDDD1C36F38
:1040FC003360012323702B6802FB03112960317894
:10410C0001F01F0150F8212032602A6840F821206C
:10411C00306880008008F2BD000000205FF36E3C28
:10412C000D66190000B5020000211120ABBE002A5B
:10413C0000D0106000BD7047012110F01F029140AB
:10414C00604A40B2430942F823107047012110F035
:10415C001F0291405C4A40B2430942F82310704759
:10416C0010B588B000A859492022FCF75FFF002049
:10417C00C0B2082809DA00A9C0B251F82010544A7C
:10418C00C0B242F82010401CF2E70024E4B21D2C0F
:10419C0009DA200040B2FFF7CFFF200040B2FFF752
:1041AC00D5FF641CF2E708B010BD80B50020FEF707
:1041BC0066FC0320FEF763FC0120FEF760FC062082
:1041CC00FEF75DFC0220FEF75AFC0420FEF757FCBC
:1041DC000520FEF754FC0720FEF722FCFEE73D48C5
:1041EC000068401C3B4908603B48006830F0804048
:1041FC003949086039480088401E384908803748DA
:10420C000088002808D14FF47A703449088034486B
:10421C000068401C324908607047F8B531480068A6
:10422C00040014F400300500002D1CD00027FFB250
:10423C00042F18DA00213800C0B2FFF76DFC06001D
:10424C0035420ED0284800683043274908600120C9
:10425C002649FFB278541F4800682549FFB241F83F
:10426C0027007F1CE3E70A20FFF770FFF1BDF8B5CC
:10427C0020480068040014F007000500002D1CD035
:10428C000027FFB2042F18DA80213800C0B2FFF7E4
:10429C0043FC060035420ED01748006830431649DF
:1042AC00086001201149FFB278540A48006810498F
:1042BC00FFB241F827007F1CE3E74FF4006002498E
:1042CC000860F1BD80E100E080E200E0CC4808002D
:1042DC0000E400E0741C00205C1C00204004002062
:1042EC00781C00204C0C0E40440C0E40241C00206A
:1042FC00881B00204C0E0E40440E0E40816807E0D7
:10430C0002681168536889185B18C3600832026030
:10431C00C2689142F4D04A1C82600878704738B564
:10432C0004460D46A068E168884212D12068616895
:10433C00884208BF00F0C3F82068227C016802B1F3
:10434C004944A16042685218E260083020609142F2
:10435C00ECD0A068401CA06000F8015D31BD2DE9D7
:10436C00F0418AB000F1080105910268520801EB96
:10437C00C20106910021079108910168490800EBE0
:10438C00C10108310091017901F001018DF8101083
:10439C0040680099400801EBC00001900020029099
:1043AC00039084E005A8FFF7A9FF044614F0030668
:1043BC0003D105A8FFF7A2FFC61C25090F2D1BD1A1
:1043CC0005A8FFF79BFF00F10F0515E005980168A4
:1043DC00081805990790496808180890059808303E
:1043EC000590079808998842F0D0401C079010F867
:1043FC00011D00A8FFF793FF761EF2D1002D51D0BE
:10440C0005A8FFF77BFF0646A00800F00300032871
:10441C0004BF05A8FFF772FFDDF800800299039F27
:10442C0006EB002008E0A8F10808801A58F8081CD0
:10443C0058F8042C5718394658F8082C8A1A824216
:10444C00F1D30C1AAE1C2DD0BC4206D158F8044B3B
:10445C0058F8040B0719BC42F8D00298039914F8C9
:10446C00015B884217D100980199884208BF00F07F
:10447C0026F8009800689DF81010029009B1484485
:10448C000290009902984968009A09180832039121
:10449C0000928842E7D00298401C0290761E00F8E9
:1044AC00015DD1D10298039988427FF47BAF0198CA
:1044BC00009981427FF476AF0AB0BDE8F08101200B
:1044CC0000F000B880B5C046C046024A1100182062
:1044DC00ABBEFBE72600020000B587B000A826495A
:1044EC001722FCF793FD002080B2B0F5097F05D2AE
:1044FC000021204A80B28154401CF5E71D481F4919
:10450C0008601C481E49086003201E4908701E489C
:10451C001C4948604FF480701A4988601548194945
:10452C00886116481749C8614FF409701549088409
:10453C000020144908730020124948731148FDF7F4
:10454C0059F9124908600FF229001149086000A8B6
:10455C00FCF7A8FD0F48006850F020000D490860DA
:10456C0007B000BD80B50A480068804701BD000057
:10457C007047000030140020CC490800F81C0020C3
:10458C00FC1C0020641B0020000C0E40F41C0020BE
:10459C00F01C0020601C002080B52948006850F0F9
:1045AC00004027490860FFF79EF8FFF7A3F8FFF7D4
:1045BC000DF8FFF7D5FDFFF748F8FDF7C9FEFEF73C
:1045CC0053F8FCF721FEFDF7D1F9FEF7F5FCFFF7E8
:1045DC00B0FCFEF791FAFFF742FAFBF751FFFFF739
:1045EC007BFFFFF765FBFCF7D5FD15480068400025
:1045FC00400813490860134813490860FEF7E1FAB4
:10460C00FFF785FAFEF7AEF8FDF72FFAFEF755FD2A
:10461C00FDF7D7FEFCF756FEFFF7E4FCFBF7F8FFBF
:10462C00FFF7A0FFFFF766FB5FF00040074908604B
:10463C00FFF71CF85FF0004005490860DBE700BF9E
:10464C005C1C0020010000A550120E40300C0E40E6
:10465C00340C0E400A0D496E697469616C697A619B
:10466C0074696F6E20636F6D706C6574652E205469
:10467C0079706520656E2B63303020666F72206414
:10468C0065627567206D656E752E20204661696CBC
:10469C006564207461736B733A0A0D004C454400D9
:1046AC00000000000000425554544F4E0000000022
:1046BC00444542554700000000004C4344000000B4
:1046CC0000000000414E5400000000000000534464
:1046DC0000000000000000000A0D4E6F2073706196
:1046EC00636520696E20416E745175657565417006
:1046FC00706C69636174696F6E4D65737361676526
:10470C000A0D000010B5074979441831064C7C4459
:10471C00163404E00A68081D511888470146A14266
:10472C00F8D110BD7001000098010000416E745466
:10473C00783A206D736720616C72656164792069C9
:10474C006E2070726F67726573730A0D0000000043
:10475C0053686F7720646562756720636F6D6D6158
:10476C006E64206C6973742020202020202020206F
:10477C0000000000546F67676C65204C4544207442
:10478C006573742020202020202020202020202031
:10479C002020202000000000546F67676C65207398
:1047AC00797374656D2074696D696E6720776172B9
:1047BC006E696E67202020200000000044756D6D2E
:1047CC007933202020202020202020202020202071
:1047DC00202020202020202020202020000000004D
:1047EC0044756D6D7934202020202020202020203D
:1047FC0020202020202020202020202020202020AD
:10480C000000000044756D6D79352020202020209B
:10481C00202020202020202020202020202020208C
:10482C00202020200000000044756D6D793620207A
:10483C00202020202020202020202020202020206C
:10484C0020202020202020200000000044756D6DC9
:10485C0079372020202020202020202020202020DC
:10486C0020202020202020202020202000000000BC
:10487C000A0D53797374656D2074696D65207669C2
:10488C006F6C6174696F6E207265706F7274696E93
:10489C0067200000EFC7FFFFD81800004804002075
:1048AC0000000000BBFAFFFF020000000200000045
:1048BC000C02000061020000000000204504000012
:1048CC00F000F0F040F0F0F0F0F05050503030F0DC
:1048DC00F0F020F020F0004040F0F0F0F01000007C
:1048EC000A0D5541525420636F756E746572206FBA
:1048FC007574206F662073796E630A0D00000000DA
:10490C000D0A414E54206578706563746564206DA2
:10491C007367206661696C0A0D0000000A0A0D417C
:10492C007661696C61626C6520636F6D6D616E643C
:10493C00733A0A0D0000000000F00CF8002801D0BA
:10494C00FFF7E0FE0020C046C046FFF725FE00F052
:10495C000BF800000249034801600120704700BFBA
:10496C000000080008ED00E000F000B807463846EB
:10497C00FFF7A8FDFBE70000416E7452783A206DFA
:10498C00657373616765206661696C65640A0D0007
:10499C00416E7454783A2053454E2074696D656F9E
:1049AC0075740A0D0000000052415A4F52205341B9
:1049BC004D335532204153434949202020000000FB
:1049CC00536443617264207461736B206469736116
:1049DC00626C65640A0D0000416E7452783A207462
:1049EC00696D656F75740A0D00000000416E74549A
:1049FC00783A204E6F20746F6B656E0A0D000000C4
:104A0C00416E7454783A204E6F2053594E430A0D20
:104A1C00000000004368616E6E656C20636C6F7300
:104A2C0065640A0D00000000202041766F69642047
:104A3C0074686520627269636B2100005072657343
:104A4C007320425554544F4E30207374617274006D
:104A5C00507265737320425554544F4E302073740A
:104A6C0061727400000002000100000002000000EE
:104A7C00040000000A0D44756D6D79210A0A0D00C1
:104A8C000A0D4C65642054657374200047616D6594
:104A9C00206F766572210000C046C046C046C046F5
:104AAC00FFF74AFF024D003E000000004E4F4E45FE
:104ABC0000000000383914725E6D0000120001F322
:104ACC0075010001100101001402F0015401018074
:104ADC000A101100004C656E677468206D69736D67
:104AEC00617463680A0D14300B436F6D6D616E64F5
:104AFC00206572726F721210090000556E65787025
:104B0C006563746517B00476656E740A0D141037FE
:104B1C006D6573736167650A0D0A0A0D2A2A2A20CE
:104B2C0052415A4F522053414D3355322041534339
:104B3C004949204C434420444556454C4F504D4523
:104B4C004E5420424F415244202D200B0A0D4465F7
:104B5C006275672072656164795810230A0D2323EE
:104B6C0023206E524635313432322050726F6772C8
:104B7C00616D6D696E67204D6F64653A206E6F20B4
:104B8C004142100C66756E6374696F6E616C69746A
:104B9C007920344223AD10075C4708000513080048
:104BAC00800812BD0812A4081003D9140800C80804
:104BBC0012A31052EC0843104808523408525808FB
:104BCC00F61B40B112200431315A04461208042459
:104BDC00010200005D4300101742080B201C6661A7
:104BEC00696C65642E20486F737420494F73207371
:104BFC00657420746F2048695A2E0D0AF8640654A7
:104C0C0072616E736D69745034052074696D656FD3
:104C1C00756E240200000D0A5B659E1404746F6FA0
:104C2C00206C6F14111515771120457B2001316D07
:104C3C007337252E240376696F6C6122223AA620E5
:104C4C00170044656661756C74204368616E6E650F
:104C5C006C20526573706F6E73651D25505263180E
:104C6C002006756E61737369676E181403496E695B
:104C7C00746961227A50112530012E2E2E4C470A70
:104C8C000AB548027461736B29416474014C454444
:104C9C00988673D35010005353502050657269702E
:104CAC00686572616C7320521A1001496E765E232E
:104CBC00642020D007617474656D70740D0A906166
:104CCC008EA1143001636C6FB9A11430016F706543
:104CDC00B44004427574746F6E9B6182620A6946BB
:104CEC00633F19A8313C4404666C6167733A6043B6
:104CFC004F4B0858024641494CF72280023002655E
:104D0C006E2B6320324E9B3002004F464609100535
:0D4D1C0008200800E8030004000101F45322
:0400000500084AA500
:00000001FF
